{
  "contractName": "Market",
  "abi": [
    {
      "anonymous": false,
      "inputs": [
        {
          "indexed": false,
          "internalType": "uint256",
          "name": "listingId",
          "type": "uint256"
        },
        {
          "indexed": false,
          "internalType": "address",
          "name": "seller",
          "type": "address"
        }
      ],
      "name": "Cancel",
      "type": "event"
    },
    {
      "anonymous": false,
      "inputs": [
        {
          "indexed": false,
          "internalType": "uint256",
          "name": "listingId",
          "type": "uint256"
        },
        {
          "indexed": false,
          "internalType": "address",
          "name": "seller",
          "type": "address"
        },
        {
          "indexed": false,
          "internalType": "address",
          "name": "token",
          "type": "address"
        },
        {
          "indexed": false,
          "internalType": "uint256",
          "name": "tokenId",
          "type": "uint256"
        },
        {
          "indexed": false,
          "internalType": "uint256",
          "name": "price",
          "type": "uint256"
        }
      ],
      "name": "Listed",
      "type": "event"
    },
    {
      "anonymous": false,
      "inputs": [
        {
          "indexed": false,
          "internalType": "uint256",
          "name": "listingId",
          "type": "uint256"
        },
        {
          "indexed": false,
          "internalType": "address",
          "name": "buyer",
          "type": "address"
        },
        {
          "indexed": false,
          "internalType": "address",
          "name": "token",
          "type": "address"
        },
        {
          "indexed": false,
          "internalType": "uint256",
          "name": "tokenId",
          "type": "uint256"
        },
        {
          "indexed": false,
          "internalType": "uint256",
          "name": "price",
          "type": "uint256"
        }
      ],
      "name": "Sale",
      "type": "event"
    },
    {
      "inputs": [
        {
          "internalType": "address",
          "name": "token",
          "type": "address"
        },
        {
          "internalType": "uint256",
          "name": "tokenId",
          "type": "uint256"
        },
        {
          "internalType": "uint256",
          "name": "price",
          "type": "uint256"
        }
      ],
      "name": "listToken",
      "outputs": [],
      "stateMutability": "nonpayable",
      "type": "function"
    },
    {
      "inputs": [
        {
          "internalType": "uint256",
          "name": "listingId",
          "type": "uint256"
        }
      ],
      "name": "getListing",
      "outputs": [
        {
          "components": [
            {
              "internalType": "enum Market.ListingStatus",
              "name": "status",
              "type": "uint8"
            },
            {
              "internalType": "address",
              "name": "seller",
              "type": "address"
            },
            {
              "internalType": "address",
              "name": "token",
              "type": "address"
            },
            {
              "internalType": "uint256",
              "name": "tokenId",
              "type": "uint256"
            },
            {
              "internalType": "uint256",
              "name": "price",
              "type": "uint256"
            }
          ],
          "internalType": "struct Market.Listing",
          "name": "",
          "type": "tuple"
        }
      ],
      "stateMutability": "view",
      "type": "function",
      "constant": true
    },
    {
      "inputs": [
        {
          "internalType": "uint256",
          "name": "listingId",
          "type": "uint256"
        }
      ],
      "name": "buyToken",
      "outputs": [],
      "stateMutability": "payable",
      "type": "function",
      "payable": true
    },
    {
      "inputs": [
        {
          "internalType": "uint256",
          "name": "listingId",
          "type": "uint256"
        }
      ],
      "name": "cancel",
      "outputs": [],
      "stateMutability": "nonpayable",
      "type": "function"
    }
  ],
  "bytecode": "0x60806040526000805534801561001457600080fd5b50610fd8806100246000396000f3fe60806040526004361061005c576000357c010000000000000000000000000000000000000000000000000000000090048063107a274a146100615780632d296bf11461009e57806340e58ee5146100ba5780637e07590d146100e3575b600080fd5b34801561006d57600080fd5b5061008860048036038101906100839190610aa2565b61010c565b6040516100959190610bfe565b60405180910390f35b6100b860048036038101906100b39190610aa2565b610234565b005b3480156100c657600080fd5b506100e160048036038101906100dc9190610aa2565b61055b565b005b3480156100ef57600080fd5b5061010a60048036038101906101059190610c45565b6107bd565b005b6101146109fa565b600160008381526020019081526020016000206040518060a00160405290816000820160009054906101000a900460ff16600281111561015757610156610acf565b5b600281111561016957610168610acf565b5b81526020016000820160019054906101000a900473ffffffffffffffffffffffffffffffffffffffff1673ffffffffffffffffffffffffffffffffffffffff1673ffffffffffffffffffffffffffffffffffffffff1681526020016001820160009054906101000a900473ffffffffffffffffffffffffffffffffffffffff1673ffffffffffffffffffffffffffffffffffffffff1673ffffffffffffffffffffffffffffffffffffffff168152602001600282015481526020016003820154815250509050919050565b60006001600083815260200190815260200160002090508060000160019054906101000a900473ffffffffffffffffffffffffffffffffffffffff1673ffffffffffffffffffffffffffffffffffffffff163373ffffffffffffffffffffffffffffffffffffffff1614156102de576040517f08c379a00000000000000000000000000000000000000000000000000000000081526004016102d590610cf5565b60405180910390fd5b600060028111156102f2576102f1610acf565b5b8160000160009054906101000a900460ff16600281111561031657610315610acf565b5b14610356576040517f08c379a000000000000000000000000000000000000000000000000000000000815260040161034d90610d61565b60405180910390fd5b806003015434101561039d576040517f08c379a000000000000000000000000000000000000000000000000000000000815260040161039490610dcd565b60405180910390fd5b60018160000160006101000a81548160ff021916908360028111156103c5576103c4610acf565b5b02179055508060010160009054906101000a900473ffffffffffffffffffffffffffffffffffffffff1673ffffffffffffffffffffffffffffffffffffffff166323b872dd303384600201546040518463ffffffff167c010000000000000000000000000000000000000000000000000000000002815260040161044b93929190610e0b565b600060405180830381600087803b15801561046557600080fd5b505af1158015610479573d6000803e3d6000fd5b505050508060000160019054906101000a900473ffffffffffffffffffffffffffffffffffffffff1673ffffffffffffffffffffffffffffffffffffffff166108fc82600301549081150290604051600060405180830381858888f193505050501580156104eb573d6000803e3d6000fd5b507ff3debaf22196a6ddf52a60fa71058cd7edf5e25bb98f4e96c994a5d4a9b0dd3e82338360010160009054906101000a900473ffffffffffffffffffffffffffffffffffffffff168460020154856003015460405161054f959493929190610e42565b60405180910390a15050565b60006001600083815260200190815260200160002090508060000160019054906101000a900473ffffffffffffffffffffffffffffffffffffffff1673ffffffffffffffffffffffffffffffffffffffff163373ffffffffffffffffffffffffffffffffffffffff1614610604576040517f08c379a00000000000000000000000000000000000000000000000000000000081526004016105fb90610ee1565b60405180910390fd5b6000600281111561061857610617610acf565b5b8160000160009054906101000a900460ff16600281111561063c5761063b610acf565b5b1461067c576040517f08c379a000000000000000000000000000000000000000000000000000000000815260040161067390610d61565b60405180910390fd5b60028160000160006101000a81548160ff021916908360028111156106a4576106a3610acf565b5b02179055508060010160009054906101000a900473ffffffffffffffffffffffffffffffffffffffff1673ffffffffffffffffffffffffffffffffffffffff166323b872dd303384600201546040518463ffffffff167c010000000000000000000000000000000000000000000000000000000002815260040161072a93929190610e0b565b600060405180830381600087803b15801561074457600080fd5b505af1158015610758573d6000803e3d6000fd5b505050507f8dd3c361eb2366ff27c2db0eb07b9261f1d052570742ab8c9a0c326f37aa576d828260000160019054906101000a900473ffffffffffffffffffffffffffffffffffffffff166040516107b1929190610f01565b60405180910390a15050565b8273ffffffffffffffffffffffffffffffffffffffff166323b872dd3330856040518463ffffffff167c010000000000000000000000000000000000000000000000000000000002815260040161081693929190610e0b565b600060405180830381600087803b15801561083057600080fd5b505af1158015610844573d6000803e3d6000fd5b5050505060006040518060a001604052806000600281111561086957610868610acf565b5b81526020013373ffffffffffffffffffffffffffffffffffffffff1681526020018573ffffffffffffffffffffffffffffffffffffffff1681526020018481526020018381525090506000808154809291906108c490610f59565b919050555080600160008054815260200190815260200160002060008201518160000160006101000a81548160ff0219169083600281111561090957610908610acf565b5b021790555060208201518160000160016101000a81548173ffffffffffffffffffffffffffffffffffffffff021916908373ffffffffffffffffffffffffffffffffffffffff16021790555060408201518160010160006101000a81548173ffffffffffffffffffffffffffffffffffffffff021916908373ffffffffffffffffffffffffffffffffffffffff16021790555060608201518160020155608082015181600301559050507f723f73331eaee88eec7fc68ef60ab6ed15e4b90d0472b55eb92fa43910bab6dd600054338686866040516109ec959493929190610e42565b60405180910390a150505050565b6040518060a0016040528060006002811115610a1957610a18610acf565b5b8152602001600073ffffffffffffffffffffffffffffffffffffffff168152602001600073ffffffffffffffffffffffffffffffffffffffff16815260200160008152602001600081525090565b600080fd5b6000819050919050565b610a7f81610a6c565b8114610a8a57600080fd5b50565b600081359050610a9c81610a76565b92915050565b600060208284031215610ab857610ab7610a67565b5b6000610ac684828501610a8d565b91505092915050565b7f4e487b7100000000000000000000000000000000000000000000000000000000600052602160045260246000fd5b60038110610b0f57610b0e610acf565b5b50565b6000819050610b2082610afe565b919050565b6000610b3082610b12565b9050919050565b610b4081610b25565b82525050565b600073ffffffffffffffffffffffffffffffffffffffff82169050919050565b6000610b7182610b46565b9050919050565b610b8181610b66565b82525050565b610b9081610a6c565b82525050565b60a082016000820151610bac6000850182610b37565b506020820151610bbf6020850182610b78565b506040820151610bd26040850182610b78565b506060820151610be56060850182610b87565b506080820151610bf86080850182610b87565b50505050565b600060a082019050610c136000830184610b96565b92915050565b610c2281610b66565b8114610c2d57600080fd5b50565b600081359050610c3f81610c19565b92915050565b600080600060608486031215610c5e57610c5d610a67565b5b6000610c6c86828701610c30565b9350506020610c7d86828701610a8d565b9250506040610c8e86828701610a8d565b9150509250925092565b600082825260208201905092915050565b7f53656c6c65722063616e6e6f7420626520627579657200000000000000000000600082015250565b6000610cdf601683610c98565b9150610cea82610ca9565b602082019050919050565b60006020820190508181036000830152610d0e81610cd2565b9050919050565b7f4c697374696e67206973206e6f74206163746976650000000000000000000000600082015250565b6000610d4b601583610c98565b9150610d5682610d15565b602082019050919050565b60006020820190508181036000830152610d7a81610d3e565b9050919050565b7f496e73756666696369656e74207061796d656e74000000000000000000000000600082015250565b6000610db7601483610c98565b9150610dc282610d81565b602082019050919050565b60006020820190508181036000830152610de681610daa565b9050919050565b610df681610b66565b82525050565b610e0581610a6c565b82525050565b6000606082019050610e206000830186610ded565b610e2d6020830185610ded565b610e3a6040830184610dfc565b949350505050565b600060a082019050610e576000830188610dfc565b610e646020830187610ded565b610e716040830186610ded565b610e7e6060830185610dfc565b610e8b6080830184610dfc565b9695505050505050565b7f4f6e6c792073656c6c65722063616e2063616e63656c206c697374696e670000600082015250565b6000610ecb601e83610c98565b9150610ed682610e95565b602082019050919050565b60006020820190508181036000830152610efa81610ebe565b9050919050565b6000604082019050610f166000830185610dfc565b610f236020830184610ded565b9392505050565b7f4e487b7100000000000000000000000000000000000000000000000000000000600052601160045260246000fd5b6000610f6482610a6c565b91507fffffffffffffffffffffffffffffffffffffffffffffffffffffffffffffffff821415610f9757610f96610f2a565b5b60018201905091905056fea264697066735822122066595c19afc7945d412f7bf1591c810e880dff7f074afa6f8f466433e6864b6d64736f6c63430008090033",
  "immutableReferences": {},
  "source": "// SPDX-License-Identifier: MIT\r\npragma solidity ^0.8.9;\r\n\r\nimport \"@openzeppelin/contracts/token/ERC721/IERC721.sol\";\r\n\r\ncontract Market {\r\n\tenum ListingStatus {\r\n\t\tActive,\r\n\t\tSold,\r\n\t\tCancelled\r\n\t}\r\n\r\n\tstruct Listing {\r\n\t\tListingStatus status;\r\n\t\taddress seller;\r\n\t\taddress token;\r\n\t\tuint tokenId;\r\n\t\tuint price;\r\n\t}\r\n\r\n\tevent Listed(\r\n\t\tuint listingId,\r\n\t\taddress seller,\r\n\t\taddress token,\r\n\t\tuint tokenId,\r\n\t\tuint price\r\n\t);\r\n\r\n\tevent Sale(\r\n\t\tuint listingId,\r\n\t\taddress buyer,\r\n\t\taddress token,\r\n\t\tuint tokenId,\r\n\t\tuint price\r\n\t);\r\n\r\n\tevent Cancel(\r\n\t\tuint listingId,\r\n\t\taddress seller\r\n\t);\r\n\r\n\tuint private _listingId = 0;\r\n\tmapping(uint => Listing) private _listings;\r\n\r\n\tfunction listToken(address token, uint tokenId, uint price) external {\r\n\t\tIERC721(token).transferFrom(msg.sender, address(this), tokenId);\r\n\r\n\t\tListing memory listing = Listing(\r\n\t\t\tListingStatus.Active,\r\n\t\t\tmsg.sender,\r\n\t\t\ttoken,\r\n\t\t\ttokenId,\r\n\t\t\tprice\r\n\t\t);\r\n\r\n\t\t_listingId++;\r\n\r\n\t\t_listings[_listingId] = listing;\r\n\r\n\t\temit Listed(\r\n\t\t\t_listingId,\r\n\t\t\tmsg.sender,\r\n\t\t\ttoken,\r\n\t\t\ttokenId,\r\n\t\t\tprice\r\n\t\t);\r\n\t}\r\n\r\n\tfunction getListing(uint listingId) public view returns (Listing memory) {\r\n\t\treturn _listings[listingId];\r\n\t}\r\n\r\n\tfunction buyToken(uint listingId) external payable {\r\n\t\tListing storage listing = _listings[listingId];\r\n\r\n\t\trequire(msg.sender != listing.seller, \"Seller cannot be buyer\");\r\n\t\trequire(listing.status == ListingStatus.Active, \"Listing is not active\");\r\n\r\n\t\trequire(msg.value >= listing.price, \"Insufficient payment\");\r\n\r\n\t\tlisting.status = ListingStatus.Sold;\r\n\r\n\t\tIERC721(listing.token).transferFrom(address(this), msg.sender, listing.tokenId);\r\n\t\tpayable(listing.seller).transfer(listing.price);\r\n\r\n\t\temit Sale(\r\n\t\t\tlistingId,\r\n\t\t\tmsg.sender,\r\n\t\t\tlisting.token,\r\n\t\t\tlisting.tokenId,\r\n\t\t\tlisting.price\r\n\t\t);\r\n\t}\r\n\r\n\tfunction cancel(uint listingId) public {\r\n\t\tListing storage listing = _listings[listingId];\r\n\r\n\t\trequire(msg.sender == listing.seller, \"Only seller can cancel listing\");\r\n\t\trequire(listing.status == ListingStatus.Active, \"Listing is not active\");\r\n\r\n\t\tlisting.status = ListingStatus.Cancelled;\r\n\t\r\n\t\tIERC721(listing.token).transferFrom(address(this), msg.sender, listing.tokenId);\r\n\r\n\t\temit Cancel(listingId, listing.seller);\r\n\t}\r\n}",
  "sourcePath": "C:\\Users\\kanna\\OneDrive\\Documents\\AVENGERS\\contracts\\Market.sol",
  "compiler": {
    "name": "solc",
    "version": "0.8.9+commit.e5eed63a.Emscripten.clang"
  },
  "schemaVersion": "3.4.15",
  "updatedAt": "2023-09-09T09:59:35.934Z",
  "networkType": "ethereum",
  "devdoc": {
    "kind": "dev",
    "methods": {},
    "version": 1
  },
  "userdoc": {
    "kind": "user",
    "methods": {},
    "version": 1
  }
}